{
  "contractName": "SDR",
  "abi": [
    {
      "inputs": [],
      "stateMutability": "nonpayable",
      "type": "constructor"
    },
    {
      "anonymous": false,
      "inputs": [
        {
          "indexed": true,
          "internalType": "address",
          "name": "owner",
          "type": "address"
        },
        {
          "indexed": true,
          "internalType": "address",
          "name": "spender",
          "type": "address"
        },
        {
          "indexed": false,
          "internalType": "uint256",
          "name": "value",
          "type": "uint256"
        }
      ],
      "name": "Approval",
      "type": "event"
    },
    {
      "anonymous": false,
      "inputs": [
        {
          "indexed": true,
          "internalType": "address",
          "name": "to",
          "type": "address"
        },
        {
          "indexed": false,
          "internalType": "uint256",
          "name": "amount",
          "type": "uint256"
        }
      ],
      "name": "Mint",
      "type": "event"
    },
    {
      "anonymous": false,
      "inputs": [],
      "name": "MintFinished",
      "type": "event"
    },
    {
      "anonymous": false,
      "inputs": [
        {
          "indexed": true,
          "internalType": "address",
          "name": "previousOwner",
          "type": "address"
        },
        {
          "indexed": true,
          "internalType": "address",
          "name": "newOwner",
          "type": "address"
        }
      ],
      "name": "OwnershipTransferred",
      "type": "event"
    },
    {
      "anonymous": false,
      "inputs": [
        {
          "indexed": true,
          "internalType": "address",
          "name": "from",
          "type": "address"
        },
        {
          "indexed": true,
          "internalType": "address",
          "name": "to",
          "type": "address"
        },
        {
          "indexed": false,
          "internalType": "uint256",
          "name": "value",
          "type": "uint256"
        }
      ],
      "name": "Transfer",
      "type": "event"
    },
    {
      "inputs": [
        {
          "internalType": "address",
          "name": "_owner",
          "type": "address"
        },
        {
          "internalType": "address",
          "name": "_spender",
          "type": "address"
        }
      ],
      "name": "allowance",
      "outputs": [
        {
          "internalType": "uint256",
          "name": "",
          "type": "uint256"
        }
      ],
      "stateMutability": "view",
      "type": "function"
    },
    {
      "inputs": [
        {
          "internalType": "address",
          "name": "_spender",
          "type": "address"
        },
        {
          "internalType": "uint256",
          "name": "_value",
          "type": "uint256"
        }
      ],
      "name": "approve",
      "outputs": [
        {
          "internalType": "bool",
          "name": "",
          "type": "bool"
        }
      ],
      "stateMutability": "nonpayable",
      "type": "function"
    },
    {
      "inputs": [
        {
          "internalType": "address",
          "name": "_owner",
          "type": "address"
        }
      ],
      "name": "balanceOf",
      "outputs": [
        {
          "internalType": "uint256",
          "name": "balance",
          "type": "uint256"
        }
      ],
      "stateMutability": "view",
      "type": "function"
    },
    {
      "inputs": [
        {
          "internalType": "uint256",
          "name": "_unsoldTokens",
          "type": "uint256"
        }
      ],
      "name": "burnTokens",
      "outputs": [
        {
          "internalType": "bool",
          "name": "",
          "type": "bool"
        }
      ],
      "stateMutability": "nonpayable",
      "type": "function"
    },
    {
      "inputs": [],
      "name": "decimals",
      "outputs": [
        {
          "internalType": "uint8",
          "name": "",
          "type": "uint8"
        }
      ],
      "stateMutability": "view",
      "type": "function"
    },
    {
      "inputs": [
        {
          "internalType": "address",
          "name": "_spender",
          "type": "address"
        },
        {
          "internalType": "uint256",
          "name": "_subtractedValue",
          "type": "uint256"
        }
      ],
      "name": "decreaseApproval",
      "outputs": [
        {
          "internalType": "bool",
          "name": "",
          "type": "bool"
        }
      ],
      "stateMutability": "nonpayable",
      "type": "function"
    },
    {
      "inputs": [],
      "name": "finishMinting",
      "outputs": [
        {
          "internalType": "bool",
          "name": "",
          "type": "bool"
        }
      ],
      "stateMutability": "nonpayable",
      "type": "function"
    },
    {
      "inputs": [
        {
          "internalType": "address",
          "name": "_spender",
          "type": "address"
        },
        {
          "internalType": "uint256",
          "name": "_addedValue",
          "type": "uint256"
        }
      ],
      "name": "increaseApproval",
      "outputs": [
        {
          "internalType": "bool",
          "name": "",
          "type": "bool"
        }
      ],
      "stateMutability": "nonpayable",
      "type": "function"
    },
    {
      "inputs": [
        {
          "internalType": "address",
          "name": "_to",
          "type": "address"
        },
        {
          "internalType": "uint256",
          "name": "_amount",
          "type": "uint256"
        }
      ],
      "name": "mint",
      "outputs": [
        {
          "internalType": "bool",
          "name": "",
          "type": "bool"
        }
      ],
      "stateMutability": "nonpayable",
      "type": "function"
    },
    {
      "inputs": [],
      "name": "mintingFinished",
      "outputs": [
        {
          "internalType": "bool",
          "name": "",
          "type": "bool"
        }
      ],
      "stateMutability": "view",
      "type": "function"
    },
    {
      "inputs": [],
      "name": "name",
      "outputs": [
        {
          "internalType": "string",
          "name": "",
          "type": "string"
        }
      ],
      "stateMutability": "view",
      "type": "function"
    },
    {
      "inputs": [],
      "name": "owner",
      "outputs": [
        {
          "internalType": "address",
          "name": "",
          "type": "address"
        }
      ],
      "stateMutability": "view",
      "type": "function"
    },
    {
      "inputs": [],
      "name": "symbol",
      "outputs": [
        {
          "internalType": "string",
          "name": "",
          "type": "string"
        }
      ],
      "stateMutability": "view",
      "type": "function"
    },
    {
      "inputs": [],
      "name": "totalSupply",
      "outputs": [
        {
          "internalType": "uint256",
          "name": "",
          "type": "uint256"
        }
      ],
      "stateMutability": "view",
      "type": "function"
    },
    {
      "inputs": [],
      "name": "totalSupplyTokens",
      "outputs": [
        {
          "internalType": "uint256",
          "name": "",
          "type": "uint256"
        }
      ],
      "stateMutability": "view",
      "type": "function"
    },
    {
      "inputs": [
        {
          "internalType": "address",
          "name": "_to",
          "type": "address"
        },
        {
          "internalType": "uint256",
          "name": "_value",
          "type": "uint256"
        }
      ],
      "name": "transfer",
      "outputs": [
        {
          "internalType": "bool",
          "name": "",
          "type": "bool"
        }
      ],
      "stateMutability": "nonpayable",
      "type": "function"
    },
    {
      "inputs": [
        {
          "internalType": "address",
          "name": "_from",
          "type": "address"
        },
        {
          "internalType": "address",
          "name": "_to",
          "type": "address"
        },
        {
          "internalType": "uint256",
          "name": "_value",
          "type": "uint256"
        }
      ],
      "name": "transferFrom",
      "outputs": [
        {
          "internalType": "bool",
          "name": "",
          "type": "bool"
        }
      ],
      "stateMutability": "nonpayable",
      "type": "function"
    },
    {
      "inputs": [
        {
          "internalType": "address",
          "name": "newOwner",
          "type": "address"
        }
      ],
      "name": "transferOwnership",
      "outputs": [],
      "stateMutability": "nonpayable",
      "type": "function"
    }
  ],
  "bytecode": "0x60806040526000600360146101000a81548160ff02191690831515021790555061003c6001670de0b6b3a764000061009b60201b61179c1760201c565b60045534801561004b57600080fd5b5033600360006101000a81548173ffffffffffffffffffffffffffffffffffffffff021916908373ffffffffffffffffffffffffffffffffffffffff1602179055506004546001819055506100d2565b6000808314156100ae57600090506100cc565b60008284029050828482816100bf57fe5b04146100c757fe5b809150505b92915050565b61183c80620000e26000396000f3fe608060405234801561001057600080fd5b50600436106101165760003560e01c80636d1b229d116100a257806395d89b411161007157806395d89b41146104bb578063a9059cbb1461053e578063d73dd623146105a2578063dd62ed3e14610606578063f2fde38b1461067e57610116565b80636d1b229d146103cb57806370a082311461040f5780637d64bcb4146104675780638da5cb5b1461048757610116565b806323b872dd116100e957806323b872dd146102405780632e187a68146102c4578063313ce567146102e257806340c10f1914610303578063661884631461036757610116565b806305d2035b1461011b57806306fdde031461013b578063095ea7b3146101be57806318160ddd14610222575b600080fd5b6101236106c2565b60405180821515815260200191505060405180910390f35b6101436106d5565b6040518080602001828103825283818151815260200191508051906020019080838360005b83811015610183578082015181840152602081019050610168565b50505050905090810190601f1680156101b05780820380516001836020036101000a031916815260200191505b509250505060405180910390f35b61020a600480360360408110156101d457600080fd5b81019080803573ffffffffffffffffffffffffffffffffffffffff1690602001909291908035906020019092919050505061070e565b60405180821515815260200191505060405180910390f35b61022a610800565b6040518082815260200191505060405180910390f35b6102ac6004803603606081101561025657600080fd5b81019080803573ffffffffffffffffffffffffffffffffffffffff169060200190929190803573ffffffffffffffffffffffffffffffffffffffff1690602001909291908035906020019092919050505061080a565b60405180821515815260200191505060405180910390f35b6102cc610b8e565b6040518082815260200191505060405180910390f35b6102ea610b94565b604051808260ff16815260200191505060405180910390f35b61034f6004803603604081101561031957600080fd5b81019080803573ffffffffffffffffffffffffffffffffffffffff16906020019092919080359060200190929190505050610b99565b60405180821515815260200191505060405180910390f35b6103b36004803603604081101561037d57600080fd5b81019080803573ffffffffffffffffffffffffffffffffffffffff16906020019092919080359060200190929190505050610d5b565b60405180821515815260200191505060405180910390f35b6103f7600480360360208110156103e157600080fd5b8101908080359060200190929190505050610fdc565b60405180821515815260200191505060405180910390f35b6104516004803603602081101561042557600080fd5b81019080803573ffffffffffffffffffffffffffffffffffffffff16906020019092919050505061104f565b6040518082815260200191505060405180910390f35b61046f611097565b60405180821515815260200191505060405180910390f35b61048f61115b565b604051808273ffffffffffffffffffffffffffffffffffffffff16815260200191505060405180910390f35b6104c3611181565b6040518080602001828103825283818151815260200191508051906020019080838360005b838110156105035780820151818401526020810190506104e8565b50505050905090810190601f1680156105305780820380516001836020036101000a031916815260200191505b509250505060405180910390f35b61058a6004803603604081101561055457600080fd5b81019080803573ffffffffffffffffffffffffffffffffffffffff169060200190929190803590602001909291905050506111ba565b60405180821515815260200191505060405180910390f35b6105ee600480360360408110156105b857600080fd5b81019080803573ffffffffffffffffffffffffffffffffffffffff169060200190929190803590602001909291905050506113d5565b60405180821515815260200191505060405180910390f35b6106686004803603604081101561061c57600080fd5b81019080803573ffffffffffffffffffffffffffffffffffffffff169060200190929190803573ffffffffffffffffffffffffffffffffffffffff1690602001909291905050506115c1565b6040518082815260200191505060405180910390f35b6106c06004803603602081101561069457600080fd5b81019080803573ffffffffffffffffffffffffffffffffffffffff169060200190929190505050611648565b005b600360149054906101000a900460ff1681565b6040518060400160405280600981526020017f44524320546f6b656e000000000000000000000000000000000000000000000081525081565b600081600260003373ffffffffffffffffffffffffffffffffffffffff1673ffffffffffffffffffffffffffffffffffffffff16815260200190815260200160002060008573ffffffffffffffffffffffffffffffffffffffff1673ffffffffffffffffffffffffffffffffffffffff168152602001908152602001600020819055508273ffffffffffffffffffffffffffffffffffffffff163373ffffffffffffffffffffffffffffffffffffffff167f8c5be1e5ebec7d5bd14f71427d1e84f3dd0314c0f7b2291e5b200ac8c7c3b925846040518082815260200191505060405180910390a36001905092915050565b6000600154905090565b60008073ffffffffffffffffffffffffffffffffffffffff168373ffffffffffffffffffffffffffffffffffffffff16141561084557600080fd5b6000808573ffffffffffffffffffffffffffffffffffffffff1673ffffffffffffffffffffffffffffffffffffffff1681526020019081526020016000205482111561089057600080fd5b600260008573ffffffffffffffffffffffffffffffffffffffff1673ffffffffffffffffffffffffffffffffffffffff16815260200190815260200160002060003373ffffffffffffffffffffffffffffffffffffffff1673ffffffffffffffffffffffffffffffffffffffff1681526020019081526020016000205482111561091957600080fd5b816000808673ffffffffffffffffffffffffffffffffffffffff1673ffffffffffffffffffffffffffffffffffffffff16815260200190815260200160002054036000808673ffffffffffffffffffffffffffffffffffffffff1673ffffffffffffffffffffffffffffffffffffffff16815260200190815260200160002081905550816000808573ffffffffffffffffffffffffffffffffffffffff1673ffffffffffffffffffffffffffffffffffffffff16815260200190815260200160002054016000808573ffffffffffffffffffffffffffffffffffffffff1673ffffffffffffffffffffffffffffffffffffffff1681526020019081526020016000208190555081600260008673ffffffffffffffffffffffffffffffffffffffff1673ffffffffffffffffffffffffffffffffffffffff16815260200190815260200160002060003373ffffffffffffffffffffffffffffffffffffffff1673ffffffffffffffffffffffffffffffffffffffff1681526020019081526020016000205403600260008673ffffffffffffffffffffffffffffffffffffffff1673ffffffffffffffffffffffffffffffffffffffff16815260200190815260200160002060003373ffffffffffffffffffffffffffffffffffffffff1673ffffffffffffffffffffffffffffffffffffffff168152602001908152602001600020819055508273ffffffffffffffffffffffffffffffffffffffff168473ffffffffffffffffffffffffffffffffffffffff167fddf252ad1be2c89b69c2b068fc378daa952ba7f163c4a11628f55a4df523b3ef846040518082815260200191505060405180910390a3600190509392505050565b60045481565b601281565b6000600360009054906101000a900473ffffffffffffffffffffffffffffffffffffffff1673ffffffffffffffffffffffffffffffffffffffff163373ffffffffffffffffffffffffffffffffffffffff1614610bf557600080fd5b600360149054906101000a900460ff1615610c0f57600080fd5b8160015401600181905550816000808573ffffffffffffffffffffffffffffffffffffffff1673ffffffffffffffffffffffffffffffffffffffff16815260200190815260200160002054016000808573ffffffffffffffffffffffffffffffffffffffff1673ffffffffffffffffffffffffffffffffffffffff168152602001908152602001600020819055508273ffffffffffffffffffffffffffffffffffffffff167f0f6798a560793a54c3bcfe86a93cde1e73087d944c0ea20544137d4121396885836040518082815260200191505060405180910390a28273ffffffffffffffffffffffffffffffffffffffff16600073ffffffffffffffffffffffffffffffffffffffff167fddf252ad1be2c89b69c2b068fc378daa952ba7f163c4a11628f55a4df523b3ef846040518082815260200191505060405180910390a36001905092915050565b600080600260003373ffffffffffffffffffffffffffffffffffffffff1673ffffffffffffffffffffffffffffffffffffffff16815260200190815260200160002060008573ffffffffffffffffffffffffffffffffffffffff1673ffffffffffffffffffffffffffffffffffffffff16815260200190815260200160002054905080831115610e6c576000600260003373ffffffffffffffffffffffffffffffffffffffff1673ffffffffffffffffffffffffffffffffffffffff16815260200190815260200160002060008673ffffffffffffffffffffffffffffffffffffffff1673ffffffffffffffffffffffffffffffffffffffff16815260200190815260200160002081905550610ef0565b828103600260003373ffffffffffffffffffffffffffffffffffffffff1673ffffffffffffffffffffffffffffffffffffffff16815260200190815260200160002060008673ffffffffffffffffffffffffffffffffffffffff1673ffffffffffffffffffffffffffffffffffffffff168152602001908152602001600020819055505b8373ffffffffffffffffffffffffffffffffffffffff163373ffffffffffffffffffffffffffffffffffffffff167f8c5be1e5ebec7d5bd14f71427d1e84f3dd0314c0f7b2291e5b200ac8c7c3b925600260003373ffffffffffffffffffffffffffffffffffffffff1673ffffffffffffffffffffffffffffffffffffffff16815260200190815260200160002060008873ffffffffffffffffffffffffffffffffffffffff1673ffffffffffffffffffffffffffffffffffffffff168152602001908152602001600020546040518082815260200191505060405180910390a3600191505092915050565b6000600360009054906101000a900473ffffffffffffffffffffffffffffffffffffffff1673ffffffffffffffffffffffffffffffffffffffff163373ffffffffffffffffffffffffffffffffffffffff161461103857600080fd5b611044600154836117d3565b600181905550919050565b60008060008373ffffffffffffffffffffffffffffffffffffffff1673ffffffffffffffffffffffffffffffffffffffff168152602001908152602001600020549050919050565b6000600360009054906101000a900473ffffffffffffffffffffffffffffffffffffffff1673ffffffffffffffffffffffffffffffffffffffff163373ffffffffffffffffffffffffffffffffffffffff16146110f357600080fd5b600360149054906101000a900460ff161561110d57600080fd5b6001600360146101000a81548160ff0219169083151502179055507fae5184fba832cb2b1f702aca6117b8d265eaf03ad33eb133f19dde0f5920fa0860405160405180910390a16001905090565b600360009054906101000a900473ffffffffffffffffffffffffffffffffffffffff1681565b6040518060400160405280600381526020017f445243000000000000000000000000000000000000000000000000000000000081525081565b60008073ffffffffffffffffffffffffffffffffffffffff168373ffffffffffffffffffffffffffffffffffffffff1614156111f557600080fd5b6000803373ffffffffffffffffffffffffffffffffffffffff1673ffffffffffffffffffffffffffffffffffffffff1681526020019081526020016000205482111561124057600080fd5b611291826000803373ffffffffffffffffffffffffffffffffffffffff1673ffffffffffffffffffffffffffffffffffffffff168152602001908152602001600020546117d390919063ffffffff16565b6000803373ffffffffffffffffffffffffffffffffffffffff1673ffffffffffffffffffffffffffffffffffffffff16815260200190815260200160002081905550611324826000808673ffffffffffffffffffffffffffffffffffffffff1673ffffffffffffffffffffffffffffffffffffffff168152602001908152602001600020546117ea90919063ffffffff16565b6000808573ffffffffffffffffffffffffffffffffffffffff1673ffffffffffffffffffffffffffffffffffffffff168152602001908152602001600020819055508273ffffffffffffffffffffffffffffffffffffffff163373ffffffffffffffffffffffffffffffffffffffff167fddf252ad1be2c89b69c2b068fc378daa952ba7f163c4a11628f55a4df523b3ef846040518082815260200191505060405180910390a36001905092915050565b600081600260003373ffffffffffffffffffffffffffffffffffffffff1673ffffffffffffffffffffffffffffffffffffffff16815260200190815260200160002060008573ffffffffffffffffffffffffffffffffffffffff1673ffffffffffffffffffffffffffffffffffffffff1681526020019081526020016000205401600260003373ffffffffffffffffffffffffffffffffffffffff1673ffffffffffffffffffffffffffffffffffffffff16815260200190815260200160002060008573ffffffffffffffffffffffffffffffffffffffff1673ffffffffffffffffffffffffffffffffffffffff168152602001908152602001600020819055508273ffffffffffffffffffffffffffffffffffffffff163373ffffffffffffffffffffffffffffffffffffffff167f8c5be1e5ebec7d5bd14f71427d1e84f3dd0314c0f7b2291e5b200ac8c7c3b925600260003373ffffffffffffffffffffffffffffffffffffffff1673ffffffffffffffffffffffffffffffffffffffff16815260200190815260200160002060008773ffffffffffffffffffffffffffffffffffffffff1673ffffffffffffffffffffffffffffffffffffffff168152602001908152602001600020546040518082815260200191505060405180910390a36001905092915050565b6000600260008473ffffffffffffffffffffffffffffffffffffffff1673ffffffffffffffffffffffffffffffffffffffff16815260200190815260200160002060008373ffffffffffffffffffffffffffffffffffffffff1673ffffffffffffffffffffffffffffffffffffffff16815260200190815260200160002054905092915050565b600360009054906101000a900473ffffffffffffffffffffffffffffffffffffffff1673ffffffffffffffffffffffffffffffffffffffff163373ffffffffffffffffffffffffffffffffffffffff16146116a257600080fd5b600073ffffffffffffffffffffffffffffffffffffffff168173ffffffffffffffffffffffffffffffffffffffff1614156116dc57600080fd5b8073ffffffffffffffffffffffffffffffffffffffff16600360009054906101000a900473ffffffffffffffffffffffffffffffffffffffff1673ffffffffffffffffffffffffffffffffffffffff167f8be0079c531659141344cd1fd0a4f28419497f9722a3daafe3b4186f6b6457e060405160405180910390a380600360006101000a81548173ffffffffffffffffffffffffffffffffffffffff021916908373ffffffffffffffffffffffffffffffffffffffff16021790555050565b6000808314156117af57600090506117cd565b60008284029050828482816117c057fe5b04146117c857fe5b809150505b92915050565b6000828211156117df57fe5b818303905092915050565b6000808284019050838110156117fc57fe5b809150509291505056fea2646970667358221220a237c0a892f263846b77b1e9831edad43ec793e7bf77ddc8ffb8fc40aec49da164736f6c634300060c0033",
  "immutableReferences": {},
  "source": "// SPDX-License-Identifier: MIT\npragma solidity ^0.6.0;\n\n/**\n * @title ERC20Basic\n * @dev Simpler version of ERC20 interface\n * @dev see https://github.com/ethereum/EIPs/issues/179\n */\n\nabstract contract ERC20Basic {\n  constructor() public { }\n  function totalSupply() public view virtual returns (uint256);\n  function balanceOf(address who) public view virtual returns (uint256);\n  function transfer(address to, uint256 value) public virtual returns (bool);\n  event Transfer(address indexed from, address indexed to, uint256 value);\n}\n\n\n\n/**\n * @title Ownable\n * @dev The Ownable contract has an owner address, and provides basic authorization control\n * functions, this simplifies the implementation of \"user permissions\".\n */\ncontract Ownable {\n  address public owner;\n\n\n  event OwnershipTransferred(address indexed previousOwner, address indexed newOwner);\n\n\n  /**\n   * @dev The Ownable constructor sets the original `owner` of the contract to the sender\n   * account.\n   */\n   \n  constructor() public {\n      owner = msg.sender;\n  }\n\n  /**\n   * @dev Throws if called by any account other than the owner.\n   */\n  modifier onlyOwner() {\n    require(msg.sender == owner);\n    _;\n  }\n\n  /**\n   * @dev Allows the current owner to transfer control of the contract to a newOwner.\n   * @param newOwner The address to transfer ownership to.\n   */\n  function transferOwnership(address newOwner) public onlyOwner {\n    require(newOwner != address(0));\n    emit OwnershipTransferred(owner, newOwner);\n    owner = newOwner;\n  }\n\n}\n\n\n\n\n/**\n * @title Basic token\n * @dev Basic version of StandardToken, with no allowances.\n */\ncontract BasicToken is ERC20Basic {\n  using SafeMath for uint256;\n\n  mapping(address => uint256) balances;\n\n  uint256 totalSupply_;\n\n  /**\n  * @dev total number of tokens in existence\n  */\n  function totalSupply() public view override returns (uint256) {\n    return totalSupply_;\n  }\n\n  /**\n  * @dev transfer token for a specified address\n  * @param _to The address to transfer to.\n  * @param _value The amount to be transferred.\n  */\n  function transfer(address _to, uint256 _value) public override returns (bool) {\n    require(_to != address(0));\n    require(_value <= balances[msg.sender]);\n\n    // SafeMath.sub will throw if there is not enough balance.\n    balances[msg.sender] = balances[msg.sender].sub(_value);\n    balances[_to] = balances[_to].add(_value);\n    emit Transfer(msg.sender, _to, _value);\n    return true;\n  }\n\n  function balanceOf(address _owner) public view override returns (uint256 balance) {\n    return balances[_owner];\n  }\n\n}\n\n\n/**\n * @title ERC20 interface\n * @dev see https://github.com/ethereum/EIPs/issues/20\n */\nabstract contract ERC20 is ERC20Basic {\n  function allowance(address owner, address spender) public view virtual returns (uint256);\n  function transferFrom(address from, address to, uint256 value) public virtual returns (bool);\n  function approve(address spender, uint256 value) public virtual returns (bool);\n  event Approval(address indexed owner, address indexed spender, uint256 value);\n}\n\n\n\n/**\n * @title Standard ERC20 token\n *\n * @dev Implementation of the basic standard token.\n * @dev https://github.com/ethereum/EIPs/issues/20\n * @dev Based on code by FirstBlood: https://github.com/Firstbloodio/token/blob/master/smart_contract/FirstBloodToken.sol\n */\ncontract StandardToken is ERC20, BasicToken {\n\n  mapping (address => mapping (address => uint256)) internal allowed;\n\n\n  /**\n   * @dev Transfer tokens from one address to another\n   * @param _from address The address which you want to send tokens from\n   * @param _to address The address which you want to transfer to\n   * @param _value uint256 the amount of tokens to be transferred\n   */\n  function transferFrom(address _from, address _to, uint256 _value) public override returns (bool) {\n    require(_to != address(0));\n    require(_value <= balances[_from]);\n    require(_value <= allowed[_from][msg.sender]);\n\n    balances[_from] = balances[_from] - _value;\n    balances[_to] = balances[_to] + _value;\n    allowed[_from][msg.sender] = allowed[_from][msg.sender] - _value;\n    emit Transfer(_from, _to, _value);\n    return true;\n  }\n\n  /**\n   * @dev Approve the passed address to spend the specified amount of tokens on behalf of msg.sender.\n   *\n   * Beware that changing an allowance with this method brings the risk that someone may use both the old\n   * and the new allowance by unfortunate transaction ordering. One possible solution to mitigate this\n   * race condition is to first reduce the spender's allowance to 0 and set the desired value afterwards:\n   * https://github.com/ethereum/EIPs/issues/20#issuecomment-263524729\n   * @param _spender The address which will spend the funds.\n   * @param _value The amount of tokens to be spent.\n   */\n  function approve(address _spender, uint256 _value) public override returns (bool) {\n    allowed[msg.sender][_spender] = _value;\n    emit Approval(msg.sender, _spender, _value);\n    return true;\n  }\n\n  /**\n   * @dev Function to check the amount of tokens that an owner allowed to a spender.\n   * @param _owner address The address which owns the funds.\n   * @param _spender address The address which will spend the funds.\n   * @return A uint256 specifying the amount of tokens still available for the spender.\n   */\n  function allowance(address _owner, address _spender) public view override returns (uint256) {\n    return allowed[_owner][_spender];\n  }\n\n  /**\n   * @dev Increase the amount of tokens that an owner allowed to a spender.\n   *\n   * approve should be called when allowed[_spender] == 0. To increment\n   * allowed value is better to use this function to avoid 2 calls (and wait until\n   * the first transaction is mined)\n   * From MonolithDAO Token.sol\n   * @param _spender The address which will spend the funds.\n   * @param _addedValue The amount of tokens to increase the allowance by.\n   */\n  function increaseApproval(address _spender, uint _addedValue) public returns (bool) {\n    allowed[msg.sender][_spender] = allowed[msg.sender][_spender] + _addedValue;\n    emit Approval(msg.sender, _spender, allowed[msg.sender][_spender]);\n    return true;\n  }\n\n  /**\n   * @dev Decrease the amount of tokens that an owner allowed to a spender.\n   *\n   * approve should be called when allowed[_spender] == 0. To decrement\n   * allowed value is better to use this function to avoid 2 calls (and wait until\n   * the first transaction is mined)\n   * From MonolithDAO Token.sol\n   * @param _spender The address which will spend the funds.\n   * @param _subtractedValue The amount of tokens to decrease the allowance by.\n   */\n  function decreaseApproval(address _spender, uint _subtractedValue) public returns (bool) {\n    uint oldValue = allowed[msg.sender][_spender];\n    if (_subtractedValue > oldValue) {\n      allowed[msg.sender][_spender] = 0;\n    } else {\n      allowed[msg.sender][_spender] = oldValue - _subtractedValue;\n    }\n    emit Approval(msg.sender, _spender, allowed[msg.sender][_spender]);\n    return true;\n  }\n\n}\n\n\n\n\n/**\n * @title Mintable token\n * @dev Simple ERC20 Token example, with mintable token creation\n * @dev Issue: * https://github.com/OpenZeppelin/zeppelin-solidity/issues/120\n * Based on code by TokenMarketNet: https://github.com/TokenMarketNet/ico/blob/master/contracts/MintableToken.sol\n */\ncontract MintableToken is StandardToken, Ownable {\n  event Mint(address indexed to, uint256 amount);\n  event MintFinished();\n\n  bool public mintingFinished = false;\n\n\n  modifier canMint() {\n    require(!mintingFinished);\n    _;\n  }\n\n  /**\n   * @dev Function to mint tokens\n   * @param _to The address that will receive the minted tokens.\n   * @param _amount The amount of tokens to mint.\n   * @return A boolean that indicates if the operation was successful.\n   */\n  function mint(address _to, uint256 _amount) onlyOwner canMint public returns (bool) {\n    totalSupply_ = totalSupply_ + _amount;\n    balances[_to] = balances[_to] + _amount;\n    emit Mint(_to, _amount);\n    emit Transfer(address(0), _to, _amount);\n    return true;\n  }\n\n  /**\n   * @dev Function to stop minting new tokens.\n   * @return True if the operation was successful.\n   */\n  function finishMinting() onlyOwner canMint public returns (bool) {\n    mintingFinished = true;\n    emit MintFinished();\n    return true;\n  }\n\n  function burnTokens(uint256 _unsoldTokens) onlyOwner public returns (bool) {\n    totalSupply_ = SafeMath.sub(totalSupply_, _unsoldTokens);\n  }\n}\n\n\n\n\n/**\n * @title SafeMath\n * @dev Math operations with safety checks that throw on error\n */\nlibrary SafeMath {\n\n  /**\n  * @dev Multiplies two numbers, throws on overflow.\n  */\n  function mul(uint256 a, uint256 b) internal view returns (uint256) {\n    if (a == 0) {\n      return 0;\n    }\n    uint256 c = a * b;\n    assert(c / a == b);\n    return c;\n  }\n\n  /**\n  * @dev Integer division of two numbers, truncating the quotient.\n  */\n  function div(uint256 a, uint256 b) internal view returns (uint256) {\n    // assert(b > 0); // Solidity automatically throws when dividing by 0\n    uint256 c = a / b;\n    // assert(a == b * c + a % b); // There is no case in which this doesn't hold\n    return c;\n  }\n\n  /**\n  * @dev Substracts two numbers, throws on overflow (i.e. if subtrahend is greater than minuend).\n  */\n  function sub(uint256 a, uint256 b) internal view returns (uint256) {\n    assert(b <= a);\n    return a - b;\n  }\n\n  /**\n  * @dev Adds two numbers, throws on overflow.\n  */\n  function add(uint256 a, uint256 b) internal view returns (uint256) {\n    uint256 c = a + b;\n    assert(c >= a);\n    return c;\n  }\n}\n\n\n\n\n/**\n * @title Pausable\n * @dev Base contract which allows children to implement an emergency stop mechanism.\n */\ncontract Pausable is Ownable {\n  event Pause();\n  event Unpause();\n\n  bool public paused = false;\n\n\n  /**\n   * @dev Modifier to make a function callable only when the contract is not paused.\n   */\n  modifier whenNotPaused() {\n    require(!paused);\n    _;\n  }\n\n  /**\n   * @dev Modifier to make a function callable only when the contract is paused.\n   */\n  modifier whenPaused() {\n    require(paused);\n    _;\n  }\n\n  /**\n   * @dev called by the owner to pause, triggers stopped state\n   */\n  function pause() onlyOwner whenNotPaused public {\n    paused = true;\n    emit Pause();\n  }\n\n  /**\n   * @dev called by the owner to unpause, returns to normal state\n   */\n  function unpause() onlyOwner whenPaused public {\n    paused = false;\n    emit Unpause();\n  }\n}\n\n\n\n/*\n * @title Crowdsale\n * @dev Crowdsale is a base contract for managing a token crowdsale.\n * Crowdsales have a start and end timestamps, where investors can make\n * token purchases and the crowdsale will assign them tokens based\n * on a token per ETH rate. Funds collected are forwarded to a wallet\n * as they arrive.\n */\n\ncontract Crowdsale is Ownable, Pausable {\n  using SafeMath for uint256;\n  // The token being sold\n  MintableToken private token;\n  // start and end timestamps where investments are allowed (both inclusive)\n  uint256 public preStartTime;\n  uint256 public preEndTime;\n  uint256 public ICOstartTime;\n  uint256 public ICOEndTime;\n\n  // Bonuses will be calculated here of ICO and Pre-ICO (both inclusive)\n  // will add cehck for permanent false, --- we are not using PRE ICO\n  // uint256 public preICOBonus;       // 20%\n  \n  uint256 public firstWeekBonus;    // 15%\n  uint256 public secondWeekBonus;   // 10%\n  uint256 public thirdWeekBonus;    // 5%\n  uint256 public forthWeekBonus;    // 1%\n  uint256 public referalBonus;    // 100\n  \n  uint256 public firstWeekSupply;    // 12%\n  uint256 public secondWeekSupply;   // 10%\n  uint256 public thirdWeekSupply;    // 8%\n  uint256 public forthWeekSupply;    // 5%\n  uint256 public mainSupply;    // 100\n\n\n  // wallet address where funds will be saved\n  address internal wallet;\n  // base-rate of a particular Dayta token\n  uint256 public rate;\n  // amount of raised money in wei\n  uint256 public weiRaised; // internal\n  // NOW Time UTC\n  uint256 public nowTime;\n  \n  // Weeks in UTC\n  uint256 public weekOne;\n  uint256 public weekTwo;\n  uint256 public weekThree;\n  uint256 public weekForth;\n\n\n  // total supply of token \n  uint256 public totalSupply = SafeMath.mul(1, 1 ether);\n\n\n  // public Supply of token\n  uint256 public publicSupply = SafeMath.mul(SafeMath.div(totalSupply,100),60);\n  // ICO supply of token  --- updating ico supply to 60% (contributors)\n  uint256 public icoSupply = SafeMath.mul(SafeMath.div(totalSupply,100),60);\n\n  // preICO supply of token  ---  changing it to 0 as we are not giving pre ico  \n  uint256 public preicoSupply = SafeMath.mul(SafeMath.div(totalSupply,100),0);           \n\n\n\n  // new addition of structures for token division\n  \n  // Team supply of token \n  // Founders / Core Team\n  uint256 public teamSupply = SafeMath.mul(SafeMath.div(totalSupply,100),12);\n\n  // Charitable\n  uint256 public charitySupply = SafeMath.mul(SafeMath.div(totalSupply,100),15);\n\n  // Advisors\n  uint256 public advisorSupply = SafeMath.mul(SafeMath.div(totalSupply,100),5);\n\n  // Bounty Supply \n  uint256 public bountySupply = SafeMath.mul(SafeMath.div(totalSupply,100),3);\n\n  // Bonus Supply \n  uint256 public bonusSupply = SafeMath.mul(SafeMath.div(totalSupply,100),5);\n\n\n  // reserve supply of token  --- not needed\n  // Reserved (business development, growth marketing, customer research, user experience / design)\n  // uint256 public reserveSupply = SafeMath.mul(SafeMath.div(totalSupply,100),5);\n\n\n  // partnerships supply of token  --- not needed\n  // uint256 public partnershipsSupply = SafeMath.mul(SafeMath.div(totalSupply,100),10);\n\n\n\n  // Time lock or vested period of token for team allocated token\n  uint256 public teamTimeLock;\n  // Time lock or vested period of token for partnerships allocated token\n  uint256 public partnershipsTimeLock;\n  // Time lock or vested period of token for reserve allocated token\n  uint256 public reserveTimeLock;\n  /*\n   *  @bool checkBurnTokens\n   *  @bool upgradeICOSupply  \n  */\n  bool public checkBurnTokens;\n  bool public upgradeICOSupply;\n  /*\n   * event for token purchase logging\n   * @param purchaser who paid for the tokens\n   * @param beneficiary who got the tokens\n   * @param value weis paid for purchase\n   * @param amount amount of tokens purchased\n   */\n  event TokenPurchase(address indexed purchaser, address indexed beneficiary, uint256 value, uint256 amount);\n\n  // Dayta Crowdsale constructor\n  constructor(uint256 _startTime, uint256 _endTime, uint256 _rate, address _wallet) public {\n    \n    require(_startTime >= block.timestamp);\n    require(_endTime >= _startTime);\n    require(_rate > 0);\n    require(_wallet != address(0));\n    \n    // Dayta token creation \n    token = createTokenContract();\n    \n    // Pre-ICO start Time\n    preStartTime = _startTime;\n    // Pre-ICO end time\n    preEndTime = preStartTime + 30 days;\n    // // ICO start Time\n    ICOstartTime = preEndTime + 5 minutes;\n    // ICO end Time\n    ICOEndTime = _endTime;\n    // Base Rate of SNCN Token\n    rate = _rate;\n    // Multi-sig wallet where funds will be saved\n    wallet = _wallet;\n    // Now time\n    nowTime = block.timestamp;\n\n\n    /* Calculations of Bonuses in Pre-ICO  -- Not Valid in this contract */ \n    // preICOBonus = SafeMath.div(SafeMath.mul(rate,20),100);\n\n\n\n    firstWeekBonus = SafeMath.div(SafeMath.mul(rate,50),100);\n    secondWeekBonus = SafeMath.div(SafeMath.mul(rate,25),100);\n    thirdWeekBonus = SafeMath.div(SafeMath.mul(rate,15),100);\n    forthWeekBonus = SafeMath.div(SafeMath.mul(rate,10),100);\n    referalBonus  = 100;\n\n\n    /* ICO bonuses week calculations */\n    weekOne = SafeMath.add(ICOstartTime, 14 days);\n    weekTwo = SafeMath.add(weekOne, 14 days);\n    weekThree = SafeMath.add(weekTwo, 14 days);\n    weekForth = SafeMath.add(weekThree, 14 days);\n\n\n    /* Vested Period calculations for team and partnershipss*/\n    teamTimeLock = SafeMath.add(ICOEndTime, 180 days);\n    reserveTimeLock = SafeMath.add(ICOEndTime, 180 days);\n    partnershipsTimeLock = SafeMath.add(preStartTime, 3 minutes);\n    checkBurnTokens = false;\n    upgradeICOSupply = false;\n  }\n  // creates the token to be sold.\n  // override this method to have crowdsale of a specific mintable token.\n  function createTokenContract() internal virtual returns (MintableToken) {\n    return new MintableToken();\n  }\n  // fallback function can be used to buy tokens\n  fallback () external payable  {\n    buyTokens(msg.sender);\n  }\n  // High level token purchase function\n  function buyTokens(address beneficiary) whenNotPaused public payable {\n    require(beneficiary != address(0));\n    require(validPurchase());\n    uint256 weiAmount = msg.value;\n    uint256 accessTime = block.timestamp;\n    uint256 tokens = 0;\n    require((weiAmount >= (1 * 1 ether)) && (weiAmount <= (50 * 1 ether)));\n\n\n  // calculating the crowdsale and Pre-crowdsale bonuses on the basis of timing  --- commenting as there is no preICO \n    // if ((accessTime >= preStartTime) && (accessTime < preEndTime) && false) \n    // {\n    //     require(preicoSupply > 0);\n    //     tokens = SafeMath.add(tokens, weiAmount.mul(preICOBonus));  // 20% Tokens\n    //     tokens = SafeMath.add(tokens, weiAmount.mul(rate));\n    //     require(preicoSupply >= tokens);\n    //     preicoSupply = preicoSupply.sub(tokens);\n    //     publicSupply = publicSupply.sub(tokens);\n    // } \n    // else \n    \n    if ((accessTime >= ICOstartTime) && (accessTime <= ICOEndTime)) \n    {\n\n        // --- pre ICO supply is set to 0\n        // if (!upgradeICOSupply) \n        // {\n        //   icoSupply = SafeMath.add(icoSupply,preicoSupply);\n        //   upgradeICOSupply = true;\n        // }\n        \n        if (accessTime <= weekOne) \n        { \n          tokens = SafeMath.add(tokens, weiAmount.mul(firstWeekBonus));\n        } \n        else if (( accessTime <= weekTwo ) && (accessTime > weekOne)) \n        { \n          tokens = SafeMath.add(tokens, weiAmount.mul(secondWeekBonus));\n        } \n        else if (( accessTime <= weekThree ) && (accessTime > weekTwo)) \n        {  \n          tokens = SafeMath.add(tokens, weiAmount.mul(thirdWeekBonus));\n        } \n        else if (( accessTime <= weekForth ) && (accessTime > weekThree)) \n        {  \n          tokens = SafeMath.add(tokens, weiAmount.mul(forthWeekBonus));\n        } \n\n        tokens = SafeMath.add(tokens, weiAmount.mul(rate));\n        icoSupply = icoSupply.sub(tokens);      \n        publicSupply = publicSupply.sub(tokens);  \n    } \n    else if ((accessTime > preEndTime) && (accessTime < ICOstartTime)) \n    {\n      revert();\n    }\n    // update state\n    weiRaised = weiRaised.add(weiAmount);\n    // tokens are minting here\n    token.mint(beneficiary, tokens);\n    emit TokenPurchase(msg.sender, beneficiary, weiAmount, tokens);\n    // funds are forwarding\n    forwardFunds();\n  }\n  // send ether to the fund collection wallet\n  // override to create custom fund forwarding mechanisms\n  function forwardFunds() virtual internal {\n    address(uint160(wallet)).transfer(msg.value);\n  }\n  // @return true if the transaction can buy tokens\n  function validPurchase() internal view returns (bool) {\n    bool withinPeriod = block.timestamp >= preStartTime && block.timestamp <= ICOEndTime;\n    bool nonZeroPurchase = msg.value != 0;\n    return withinPeriod && nonZeroPurchase;\n  }\n  // @return true if crowdsale event has ended\n  function hasEnded() public view returns (bool) {\n      return block.timestamp > ICOEndTime;\n  }\n  function burnToken() onlyOwner  public returns (bool) {\n    require(hasEnded());\n    require(!checkBurnTokens);\n    token.burnTokens(icoSupply);\n    totalSupply = SafeMath.sub(totalSupply, publicSupply);\n    preicoSupply = 0;\n    icoSupply = 0;\n    publicSupply = 0; \n    checkBurnTokens = true;\n    return true;\n  }\n  function transferFunds(address[] memory recipients, uint256[] memory values) onlyOwner  public {\n     require(!checkBurnTokens);\n     for (uint256 i = 0; i < recipients.length; i++) {\n        values[i] = SafeMath.mul(values[i], 1 ether);\n        require(publicSupply >= values[i]);\n        publicSupply = SafeMath.sub(publicSupply,values[i]);\n        token.mint(recipients[i], values[i]); \n    }\n  } \n  function bountyFunds(address[] memory recipients, uint256[] memory values) onlyOwner  public {\n     require(!checkBurnTokens);\n     for (uint256 i = 0; i < recipients.length; i++) {\n        values[i] = SafeMath.mul(values[i], 1 ether);\n        require(bountySupply >= values[i]);\n        bountySupply = SafeMath.sub(bountySupply,values[i]);\n        token.mint(recipients[i], values[i]); \n    }\n  }\n  function transferAdvisorFunds(address[] memory recipients, uint256[] memory values) onlyOwner  public {\n     require(!checkBurnTokens);\n     for (uint256 i = 0; i < recipients.length; i++) {\n        values[i] = SafeMath.mul(values[i], 1 ether);\n        require(advisorSupply >= values[i]);\n        advisorSupply = SafeMath.sub(advisorSupply,values[i]);\n        token.mint(recipients[i], values[i]); \n    }\n  }\n  function transferTeamTokens(address[] memory recipients, uint256[] memory values) onlyOwner  public {\n    require(!checkBurnTokens);\n    require((block.timestamp > teamTimeLock));\n     for (uint256 i = 0; i < recipients.length; i++) {\n        values[i] = SafeMath.mul(values[i], 1 ether);\n        require(teamSupply >= values[i]);\n        teamSupply = SafeMath.sub(teamSupply,values[i]);\n        token.mint(recipients[i], values[i]); \n    }\n  }\n  function transferCharityTokens(address[] memory recipients, uint256[] memory values) onlyOwner  public {\n    require(!checkBurnTokens);\n    require((block.timestamp > teamTimeLock));\n     for (uint256 i = 0; i < recipients.length; i++) {\n        values[i] = SafeMath.mul(values[i], 1 ether);\n        require(charitySupply >= values[i]);\n        charitySupply = SafeMath.sub(charitySupply,values[i]);\n        token.mint(recipients[i], values[i]); \n    }\n  }\n\n  // TODO: check, whats the issue --- commenting for now\n  // function getTokenAddress() onlyOwner public returns (address) {\n  //   return token;\n  // }\n\n\n  // function transferPartnershipsTokens(address[] recipients, uint256[] values) onlyOwner  public {\n  //   require(!checkBurnTokens);\n  //   require((reserveTimeLock < now));\n  //    for (uint256 i = 0; i < recipients.length; i++) {\n  //       values[i] = SafeMath.mul(values[i], 1 ether);\n  //       require(partnershipsSupply >= values[i]);\n  //       partnershipsSupply = SafeMath.sub(partnershipsSupply,values[i]);\n  //       token.mint(recipients[i], values[i]); \n  //   }\n  // }\n  // function transferReserveTokens(address[] recipients, uint256[] values) onlyOwner  public {\n  //   require(!checkBurnTokens);\n  //   require((reserveTimeLock < now));\n  //    for (uint256 i = 0; i < recipients.length; i++) {\n  //       values[i] = SafeMath.mul(values[i], 1 ether);\n  //       require(reserveSupply >= values[i]);\n  //       reserveSupply = SafeMath.sub(reserveSupply,values[i]);\n  //       token.mint(recipients[i], values[i]); \n  //   }\n  // }\n}\n\n\n\n\n/**\n * @title FinalizableCrowdsale\n * @dev Extension of Crowdsale where an owner can do extra work\n * after finishing.\n */\n\nabstract contract FinalizableCrowdsale is Crowdsale {\n  using SafeMath for uint256;\n\n  bool isFinalized = false;\n\n  event Finalized();\n\n  /**\n   * @dev Must be called after crowdsale ends, to do some extra finalization\n   * work. Calls the contract's finalization function.\n   */\n  function finalizeCrowdsale() onlyOwner public {\n    require(!isFinalized);\n    require(hasEnded());\n    \n    finalization();\n    emit Finalized();\n    \n    isFinalized = true;\n    }\n  \n\n  /**\n   * @dev Can be overridden to add finalization logic. The overriding function\n   * should call super.finalization() to ensure the chain of finalization is\n   * executed entirely.\n   */\n  function finalization() virtual internal {\n  }\n}\n\n\n\n\n/**\n * @title RefundVault\n * @dev This contract is used for storing funds while a crowdsale\n * is in progress. Supports refunding the money if crowdsale fails,\n * and forwarding it if crowdsale is successful.\n */\ncontract RefundVault is Ownable {\n  using SafeMath for uint256;\n\n  enum State { Active, Refunding, Closed }\n\n  mapping (address => uint256) public deposited;\n  address public wallet;\n  State public state;\n\n  event Closed();\n  event RefundsEnabled();\n  event Refunded(address indexed beneficiary, uint256 weiAmount);\n\n  constructor(address _wallet) public {\n    require(_wallet != address(0));\n    wallet = _wallet;\n    state = State.Active;\n  }\n\n  function deposit(address investor) onlyOwner public payable {\n    require(state == State.Active);\n    deposited[investor] = deposited[investor].add(msg.value);\n  }\n\n  // TODO: this funcion is mysterious --- check it later\n  // function close() onlyOwner public {\n  //   require(state == State.Active);\n  //   state = State.Closed;\n  //   emit Closed();\n  //   wallet.transfer(address(this).balance);\n  // }\n\n  function enableRefunds() onlyOwner public {\n    require(state == State.Active);\n    state = State.Refunding;\n    emit RefundsEnabled();\n  }\n\n  function refund(address payable investor) public {\n    require(state == State.Refunding);\n    uint256 depositedValue = deposited[investor];\n    deposited[investor] = 0;\n    investor.transfer(depositedValue);\n    emit Refunded(investor, depositedValue);\n  }\n}\n\n\n\n\n/**\n * @title RefundableCrowdsale\n * @dev Extension of Crowdsale contract that adds a funding goal, and\n * the possibility of users getting a refund if goal is not met.\n * Uses a RefundVault as the crowdsale's vault.\n */\nabstract contract RefundableCrowdsale is FinalizableCrowdsale {\n  using SafeMath for uint256;\n\n  // minimum amount of funds to be raised in weis\n  uint256 public goal;\n\n  // refund vault used to hold funds while crowdsale is running\n  RefundVault public vault;\n\n  constructor(uint256 _goal) public {\n    require(_goal > 0);\n    vault = new RefundVault(wallet);\n    goal = _goal;\n  }\n\n  // if crowdsale is unsuccessful, investors can claim refunds here\n  function claimRefund() public {\n    require(isFinalized);\n    require(!goalReached());\n\n    vault.refund(msg.sender);\n  }\n\n  function goalReached() public view returns (bool) {\n    return weiRaised >= goal;\n  }\n\n  // vault finalization task, called when owner calls finalize()\n  function finalization() override internal {\n    if (goalReached()) {\n      // vault.close();\n    } else {\n      vault.enableRefunds();\n    }\n\n    super.finalization();\n  }\n\n  // We're overriding the fund forwarding from Crowdsale.\n  // In addition to sending the funds, we want to call\n  // the RefundVault deposit function\n  function forwardFunds() virtual override internal {\n    // vault.deposit.value(msg.value)(msg.sender);\n\n    vault.deposit.value(msg.value)(msg.sender);\n\n  }\n\n}\n\n\n\ncontract SDR is MintableToken {\n  string public constant name = \"DRC Token\";\n  string public constant symbol = \"DRC\";\n  uint8 public constant decimals = 18;\n  uint256 public totalSupplyTokens = SafeMath.mul(1 , 1 ether);\n  \n  constructor() public { \n    totalSupply_ = totalSupplyTokens;\n  }\n}\n\n\ncontract SDRCrowdsale is Crowdsale, RefundableCrowdsale {\n    uint256 _startTime = 1547510400;                                            // January/15/2019 @ 12:00am (UTC)\n    uint256 _endTime = 1557964740;                                              // 05/15/2019 @ 11:59pm (UTC)\n    uint256 _rate = 33750;                                                      // 1 ETHER Price :: DAYTA TOKENS ::\n    uint256 _goal = 3000 * 1 ether;                                             // SOFT CAP\n    address _wallet = 0xfEcB6d19b40f72672c86A6EE54979E1c0253717f;               // WALLET ADDRESS \n \n      function forwardFunds() internal  override (Crowdsale, RefundableCrowdsale) {\n      }\n\n    /* Constructor DaytaCrowdsale */\n    constructor() public\n    FinalizableCrowdsale() \n    RefundableCrowdsale(_goal) \n    Crowdsale(_startTime,_endTime,_rate,_wallet)\n    {\n\n    }\n\n    /*Dayta Contract is generating from here */\n    function createTokenContract() internal override returns (MintableToken) {\n        return new SDR();\n    }\n}",
  "sourcePath": "/Users/arhamsoft/Documents/Projects/ICO/ico/contract/contracts/PkrtToken.sol",
  "compiler": {
    "name": "solc",
    "version": "0.6.12+commit.27d51765.Emscripten.clang"
  },
  "schemaVersion": "3.4.0",
  "updatedAt": "2021-04-27T06:20:57.023Z",
  "devdoc": {
    "kind": "dev",
    "methods": {
      "allowance(address,address)": {
        "details": "Function to check the amount of tokens that an owner allowed to a spender.",
        "params": {
          "_owner": "address The address which owns the funds.",
          "_spender": "address The address which will spend the funds."
        },
        "returns": {
          "_0": "A uint256 specifying the amount of tokens still available for the spender."
        }
      },
      "approve(address,uint256)": {
        "details": "Approve the passed address to spend the specified amount of tokens on behalf of msg.sender. Beware that changing an allowance with this method brings the risk that someone may use both the old and the new allowance by unfortunate transaction ordering. One possible solution to mitigate this race condition is to first reduce the spender's allowance to 0 and set the desired value afterwards: https://github.com/ethereum/EIPs/issues/20#issuecomment-263524729",
        "params": {
          "_spender": "The address which will spend the funds.",
          "_value": "The amount of tokens to be spent."
        }
      },
      "decreaseApproval(address,uint256)": {
        "details": "Decrease the amount of tokens that an owner allowed to a spender. approve should be called when allowed[_spender] == 0. To decrement allowed value is better to use this function to avoid 2 calls (and wait until the first transaction is mined) From MonolithDAO Token.sol",
        "params": {
          "_spender": "The address which will spend the funds.",
          "_subtractedValue": "The amount of tokens to decrease the allowance by."
        }
      },
      "finishMinting()": {
        "details": "Function to stop minting new tokens.",
        "returns": {
          "_0": "True if the operation was successful."
        }
      },
      "increaseApproval(address,uint256)": {
        "details": "Increase the amount of tokens that an owner allowed to a spender. approve should be called when allowed[_spender] == 0. To increment allowed value is better to use this function to avoid 2 calls (and wait until the first transaction is mined) From MonolithDAO Token.sol",
        "params": {
          "_addedValue": "The amount of tokens to increase the allowance by.",
          "_spender": "The address which will spend the funds."
        }
      },
      "mint(address,uint256)": {
        "details": "Function to mint tokens",
        "params": {
          "_amount": "The amount of tokens to mint.",
          "_to": "The address that will receive the minted tokens."
        },
        "returns": {
          "_0": "A boolean that indicates if the operation was successful."
        }
      },
      "totalSupply()": {
        "details": "total number of tokens in existence"
      },
      "transfer(address,uint256)": {
        "details": "transfer token for a specified address",
        "params": {
          "_to": "The address to transfer to.",
          "_value": "The amount to be transferred."
        }
      },
      "transferFrom(address,address,uint256)": {
        "details": "Transfer tokens from one address to another",
        "params": {
          "_from": "address The address which you want to send tokens from",
          "_to": "address The address which you want to transfer to",
          "_value": "uint256 the amount of tokens to be transferred"
        }
      },
      "transferOwnership(address)": {
        "details": "Allows the current owner to transfer control of the contract to a newOwner.",
        "params": {
          "newOwner": "The address to transfer ownership to."
        }
      }
    },
    "version": 1
  },
  "userdoc": {
    "kind": "user",
    "methods": {},
    "version": 1
  }
}